:040000000A160028B4
:10000600FB14FB1F0D28FF30F300F200F100F00097
:08001600FA0DF20CFF300800A6
:0E001E00F201F101F001F801F30100300800D9
:10002C007B15FB1F20280130F300F201F101F001D8
:08003C00FA0DF20CFF30080080
:08004400FA1FF213003008005E
:10004C00C73083120313FD00FD0B2A2800000000AB
:02005C0008009A
:10005E00033083120313FD00FD0B33280000000054
:02006E00080088
:100070007C186E28FC183F287C198D283828A00190
:100080007208031D5F287108F2007008F1007808FB
:10009000F000F801A0157208031D5F287108F20036
:1000A0007008F100F001A01120167208031D5F28EE
:1000B0007108F200F101A0157208031981282008C7
:1000C000F302031D031C85280310F21B6E28F80D94
:1000D000F00DF10DF20DF30B652885287B1B701CCC
:1000E0008928F81F8928F00A0319F10A0319F20A6E
:1000F000031D8928F20CF10CF00CF30A03198D286A
:1001000089280130FC000F2090280230FC001620C6
:1001100090280430FC00222090280830FC000320A6
:0401200000000800D3
:10012400A0017208031DA7287108F2007008F100ED
:10013400F001A0157208031DA7287108F200F1014F
:10014400A011201672080319B5282008F302031D14
:10015400031CB9280310F21BBD28F00DF10DF20D9C
:10016400F30BAD28B9280130FC000F20C028023061
:0E017400FC001620C0280430FC0022200800E9
:10018200563083120313FC00B530FD00FD0BC72867
:0A019200FC0BC72800000000080065
:10019C007B14FB1FD928F201FA1FFF30F200F1008B
:0A01AC00F000FA0DF20CFF3008001D
:1001B60083120317B51BE22803138812E4280313DE
:1001C60088160317351BEA2803130812EC280313B5
:1001D60008160317B51AF22803138811F428031317
:1001E60088150317351AFA2803130811FC28031378
:1001F6000815EF19002908140129081088142F2062
:1002060088100317B5190A29031388120C2903133A
:100216008816031735191229031308121429031314
:1002260008160317B5181A29031388111C29031376
:1002360088150317351822290313081124290313D7
:100246000815EF19282908142929081088142F20C1
:0E0256008810EF1D3029C12031292620080014
:06026400FB15FF3008004D
:10026A00831203173508F2007208F100F20A360801
:10027A00F000B60A700884000008F00071088400D3
:10028A007008800071088400000803194D29392973
:06029A003508F000080029
:1002A0008312031372087606A000F801F90173089F
:1002B0007702031C73297708FD007308F7007D0897
:1002C000F3007608FD007208F6007D08F20075085C
:1002D000FD007108F5007D08F1007408FD0070084C
:1002E000F4007D08F00077080319EC297208FA0081
:1002F000F217F61777087302F7000319A6290830DA
:100300007702031C9C29F7007408F9007508F400B3
:100310007608F500F60108307702031C9C29F700E7
:100320007408F9007508F400F50108307702031C21
:100330009C297A08F200EC2977080319A6290310F2
:10034000F60CF50CF40CF90CF70B9F29A01FB32940
:10035000F909F409F509F609F90A0319F40A031968
:10036000F50A0319F60A7908F80774080318740FD8
:10037000F00775080318750FF10776080318760F54
:10038000F207A01BCC29031CDC29F20CF10CF00CA9
:10039000F80CF30FDC29E8290318E029F809F00923
:1003A000F109F209F80A0319F00A0319F10A03190D
:1003B000F20A8030FA06E4290130FC003820EE29E8
:1003C0000230FC003820EE290430FC009220EE2997
:1003D0000830FC000320EE290030FC00000008007B
:1003E00083120313FA017308031D7A147708031D9F
:1003F000FA147A0803193C2A033A0319072A7A18CF
:10040000042AF61F3A2A382AF21F382A3A2A720892
:100410008039FA00F21376088039F6137A06031948
:10042000152A7A080319382A3A2A77087302031919
:100430001C2A031C302A342A760872020319232A44
:10044000031C302A342A7508710203192A2A031C56
:10045000302A342A7408700203193C2A0318342AFB
:10046000FA0803193A2A382AFA080319382A3A2AC4
:100470000314080003100800031403150800080003
:1004800083120313FB017308031D77080319972ACE
:1004900072087606FA007708F3077E30031C542AA8
:1004A000F30203189A2A572AF302031C9D2A7208A2
:1004B000F8007108FC007008FD00F817F61703102B
:1004C000F201F101F0011830A0007D1C712A7408BE
:1004D000F00775080318750FF10776080318760FF3
:1004E000F207F20CF10CF00CF80CFC0CFD0C0310F4
:1004F000A00B652AF21B812AF80DF00DF10DF20D0B
:10050000F3037B1B701C932AF81F932AF00A03192C
:10051000F10A0319F20A031D932AF20CF10CF00CF4
:10052000F30A03199A2AFA1FF21300309F2A0130A6
:100530000F209F2A023003209F2A0430162000003B
:020540000800B1
:10054200573083120313FD00FD0BA52A00000000A3
:0205520008009F
:1005540083120313FD01F8017008031900347406B3
:10056400FA00FA1BFD09FB01F41FBA2AF409F40A84
:10057400F01FBE2AF009F00A70087404FA00FA1B8E
:10058400E22A7408F802F00D700DF80D7408F807EB
:10059400F00D0630FC00700DF80D74087018F802A8
:1005A400701CF807F00DFC0BCD2A701CF8077B18A3
:1005B400F02AFD1F0034F009F00AF809F80A0034A3
:1005C400F41FED2AF01BEA2A7008F800F001DB2A78
:1005D400F001F00A0034F009FB0AC32AF80A74088F
:1005E4007802031DDB2AF801F00AF01FDB2AFF342E
:0205F4000800FD
:1005F600831203137008F8007108F000F101F2018C
:10060600F301FB01FC019630F300FA017008F100DA
:0C0616007808F000F801F20192200800C2
:10062200831203137408003A031D2C2B7508003A39
:10063200031D2C2B7608003A031D2C2B7708003A59
:10064200031D2C2BFF30F000FF30F1007F30F20051
:10065200FF30F300C72B8312031377080319BB2B58
:1006620073080319BE2B720876068039FA00F21756
:10067200F617A0017208F8007108FC007008FD006E
:100682007408FD027508031C750FFC027608031C32
:10069200760FF802F801FC01FD01031C572B031031
:1006A200F20CF10CF00CF80C0130A0007708F30208
:1006B200031C612B7E302007F3070318C12B662B26
:1006C2007E302007F307031CC42B1830FA07FD0DF8
:1006D200FC0DF80DF00DF10DF20DA00D7408F002F5
:1006E2007508031C750FF1027608031C760FF202DF
:1006F200760DA004201C7F2B7D148A2B7408F00732
:1007020075080318750FF10776080318760AF207C1
:100712007D10FA031F307A05031D682B7B1B7D1C9D
:10072200B12B0310F00DF10DF20DA00D7408F002C3
:100732007508031C750FF1027608031C760FF2028E
:10074200760D20040139FD070318FC0A0319F80A83
:10075200031DB12BF80CFC0CFD0CF30A0319C12B81
:10076200FA1FF8137808F2007C08F1007D08F00007
:100772000030C62B01303221C62B02300F20C62B8F
:0E07820004300320C62B0830162000000800AB
:1007900083120313FB0173080319052C7208FA0076
:1007A000F2178E30F302F31F082CF309F30A083016
:1007B0007302031CEB2BF300F10D7208F100F20140
:1007C00008307302031CEB2BF300F10DF1017308E9
:1007D000031D0310F32B73080319F32B0310F20C02
:1007E000F10CF30BEE2B7B1B711CFD2B031CFD2B63
:1007F000F10A0319F20AF21B142CFA1F172CF20942
:10080000F109F10A0319F20A172CF201F101172C70
:100810007B14FB1F1A2CF201FA1F1A2CFF30F20076
:10082000F100FA0DF20C1A2C0130FC001C2C0030E7
:10083000FC001C2CFF30FC00FC080319202CCE20EF
:0A0840007108F0007208F1000800D2
:10084A00831203137008F8007108F000F101F20135
:10085A00F301FB01FC019630F300FA01F01F3B2C77
:10086A00F809F009F80A0319F00AFA177008F100F2
:0C087A007808F000F801F201922008005C
:10088600083083120313FC00C130FD00FD0B492C18
:0A089600FC0B492C000000000800D4
:0C08A000831203138030F606502108007C
:1008AC0083120317B001B101B201B301B4012408E2
:1008BC00AC002508AD002608AE002708AF002F08B5
:1008CC00FF3A031D732C2E08FF3A031D732C2D08C1
:1008DC00FF3A031D732C2C08FF3A031D7D2C2808AE
:1008EC00B500B830B60035210330F000D12E013000
:1008FC00AA00AE1F8D2C80302E06F0007008AE00C2
:10090C00AA0AB10A280884002D308000A80A0030F9
:10091C00F0002F06031D9C2C70082E06031D9C2C2A
:10092C0070082D06031D9C2C2C08003A031DA52CC9
:10093C002808B500BC30B6003521F001D12E2F08A7
:10094C00FF3A031DB32C2E08003A031DB32C2D08BF
:10095C00003A031DB32C2C08003A031DBD2C2808AB
:10096C00B500B430B60035212A08F000D12E003085
:10097C00F4000030F5000030F6007F30F7002C0852
:10098C00F0002D08F1002E08F2002F08F300F021E2
:10099C00013003180030F00070080319F22C031713
:1009AC002C08F0002D08F1002E08F2002F08F3009F
:1009BC000030F4000030F5002030F6008230F700F3
:1009CC00402270080317AC007108AD007208AE002D
:1009DC007308AF00B403BD2C03170030F4000030D3
:1009EC00F5002030F6008230F7002C08F0002D08BE
:1009FC00F1002E08F2002F08F300F0210130031C47
:100A0C000030F00070080319282D03172C08F00093
:100A1C002D08F1002E08F2002F08F300CD30F40061
:100A2C00CC30F5004C30F6007B30F70040227008DB
:100A3C000317AC007108AD007208AE007308AF006C
:100A4C00B40AF22C0317FF302C05F800FF302D05EB
:100A5C00F9007F302E05FA0000302F05FB007808D6
:100A6C00F4007908F5007A08F6007B08F700F40D1D
:100A7C00F50DF60DF70D741000302C05F00000305C
:100A8C002D05F10000302E05F200FF302F05F3008C
:100A9C007008AC007108AD007208AE007308AF00AE
:100AAC0074082C04F00075082D04F10076082E044F
:100ABC00F20077082F04F3007008AC007108AD0049
:100ACC007208AE007308AF007F302F02F000700880
:100ADC00AB000130AF007008F4002C08F0002D08BA
:100AEC00F1002E08F2002F08F30074080319852D6D
:100AFC00F00DF10DF20DF30D7010FF3E7C2D700812
:100B0C00AC007108AD007208AE007308AF002F087E
:100B1C00303EF0002808840070088000A80AB10A52
:100B2C0080303406F0008030013A7002031CA72D8F
:100B3C008030063AF000803034067002031CA72D7A
:100B4C00AF2D280884002E308000A80A0130B00098
:100B5C00B10A0630AB002B08003A0319112EAF0175
:100B6C002C08F0002D08F1002E08F2002F08F300DD
:100B7C00F00DF10DF20DF30D7010F00DF10DF20DF5
:100B8C00F30D70102C08F0072D0803182D0FF1072A
:100B9C002E0803182E0FF2072F0803182F0FF30738
:100BAC007008AC007108AD007208AE007308AF009D
:100BBC002C08F0002D08F1002E08F2002F08F3008D
:100BCC00F00DF10DF20DF30D70107008AC00710802
:100BDC00AD007208AE007308AF002F08303EF00075
:100BEC002808840070088000A80AB10A3008003A6E
:100BFC00031D0F2EB4033408003A031D0F2E0130D1
:100C0C00B300280884002E308000A80A0130B00000
:100C1C00B10AAB03B12D3308013A031D162EB103F3
:100C2C00FF302807840000082E3A031D1F2EA8034E
:100C3C00B1038030003AF0008030340670020318A3
:100C4C00292E0130B20080303406F0008030003A9A
:100C5C0070020318332E0230B2003408AB0080301F
:100C6C00093AF000803034067002031C3F2EB20AA1
:100C7C00412E0230B20732083107F100F20103189D
:100C8C00F20A80307206F00080307002031D502E84
:100C9C00290871020318592E28088400303080006E
:100CAC00A80AB10A412E3408003A0319982E2808D4
:100CBC00840065308000A80A80303406F000803053
:100CCC00003A70020318722E280884002D30800020
:100CDC00A80A3408003CB4003408AB008030093A50
:100CEC00F0008030340670020318892E0A30F400AC
:100CFC002B08F000AA223030F007031728088400D4
:100D0C0070088000A80A0A30F4002B08F000AA2210
:100D1C007808F0003030F0070317280884007008BA
:100D2C008000A80A32083107F0007008B1002908C9
:100D3C007002F1007108AB008030003AF000803096
:100D4C00710670020318B62E8030003AF000803025
:100D5C002B0670020318B52EAB03A803AA2ECD2EBA
:100D6C0080302B06F0008030003A70020318CD2E34
:100D7C0080302B06F0008030003A70020318CD2E24
:100D8C00AB0A2808840030308000A80ABE2E280840
:080D9C0084008001F001080051
:100DA40083120313EF1103172408B500DB20EF159A
:020DB400080035
:0E0DB6008312031717088A001608820008002F
:100DC400831203139F01C0309F046E09F000700862
:100DD40083169F051F179F17831203172408F0001B
:100DE400F00D7010F00D7010F00D701070080313FA
:100DF4009F041F14A1221F151F1D022F0000FE2E89
:100E04001F101E08F100F00183161E08F0040030C4
:040E1400F1040800DD
:100E1800831203179C011908F1000130F0007108D2
:100E280003191A2FF00D7010FF3E142F7008831647
:100E38000313EF00831203171808840070080005D5
:100E4800F10071080130031D0030F0001B08F006A6
:100E580003194B2F1A08003C0318372F4324432447
:100E680003179A032E2F18088400831603136F089C
:100E78000005F10071080130031D0030F0008312F5
:100E880003171B08F00603194B2FFF309C001C08A2
:040E9800F00008005E
:100E9C0083120317A401E226FB2270088316E800D4
:100EAC007108E9007208EA007308EB000130831244
:100EBC000317A400E226FB2270080317A000710898
:100ECC00A1007208A2007308A30020080313DF001E
:100EDC00031721080313E000031722080313E10092
:100EEC00031723080313E200031718081A07F0006E
:100EFC001B080318013E1907F100252403172008CD
:100F0C00F4002108F5002208F6002308F70040221F
:100F1C00700803179C0071089D0072089E007308EE
:100F2C009F002008F4002108F5002208F600230891
:100F3C00F700831603136808F0006908F1006A08CB
:100F4C00F2006B08F30050247008F4007108F500EF
:100F5C007208F6007308F70003171C08F0001D0850
:100F6C00F1001E08F2001F08F30011237008E300C3
:100F7C007108E4007208E5007308E600C823080055
:100F8C00831203171808A4001908A5001A08A60054
:100F9C001B08A7001030A8001C08A900562410300C
:040FAC00F000080049
:100FB000FF3083160313EC00FF30ED00FF30EE002E
:100FC000FF3083129F01C0309F046E09F00070084B
:0E0FD00083169F051F179F1783121F1408001A
:0E0FDE00831603138701871507168716080070
:100FEC008830831603138100CE3083128100A03029
:040FFC008B0008005E
:10100000122880308312031798002528C0309800DA
:101010002528943098002528D43098002528803041
:1010200098002528831203171808013A031901288C
:101030001808023A031906281808033A0319092860
:101040001808043A03190C280F281903F00018088F
:10105000F007700898007008B5008A11DB208A1527
:10106000EF118316EF016F08831203171A0784002C
:10107000000803194A28831603136F088312031705
:101080001A0784000008A4008A11D2268A15831644
:0C109000EF0A332803138312EF15080049
:10109C00831603138810081008118811081288127F
:1010AC0083128810081088120812881108118A11EE
:1010BC00C1208A158A11C1208A158A11C1208A156E
:1010CC008815081588148A112F208A1588108A1102
:1010DC00C1208A1588148A112F208A1588108A112C
:1010EC00C1208A1588148A112F208A1588108A111C
:1010FC00C1208A15081188148A112F208A1588108E
:10110C008A11C1208A1588148A112F208A158810FB
:10111C008811881688148A112F208A1588108A1134
:10112C00C1208A158812081588148A112F208A1557
:10113C008810081188148A112F208A1588108A119A
:10114C00C1208A1588148A112F208A158810081539
:10115C0088148A112F208A1588108A11C1208A15AB
:10116C00081188148A112F208A15881088160816E1
:10117C008815081588148A112F208A1588108A1151
:08118C00C1208A15EF150800CF
:101194008A11DB268A150A128000840A960A03192A
:0A11A400970AF003031DCA28080093
:1011AE008312031307171F30FB007130FC001E3033
:1011BE00FD00FD0BE028FC0BE028FB0BE0280000F7
:1011CE00071301300317A4008A11E2268A158A112B
:1011DE00FB228A157008DF007108E0007208E1003A
:1011EE007308E200C601C70103171808F4001908B6
:1011FE00F5001A08F6001B08F70003135F08F0004D
:10120E006008F1006108F2006208F3008A11F02113
:10121E008A15013003180030F000700803193129C7
:10122E000B1D30290B11C60A0319C70ACE308100D7
:10123E0001300317A4008A11E2268A158A11FB22B7
:10124E008A157008DF007108E0007208E10073086B
:0E125E00E200FB284608F0004708F1000800F7
:1013B400213084004D3083120313F00036300317BC
:1013C400960009309700CA20A03084000A30031325
:1013D400F000C5300317960009309700CA206E301C
:1013E400840001300313F000D9300317960009304C
:1013F4009700CA20AA30840042300313F0008330DF
:0C1404000317960009309700CA2008006A
:102000008A150A12DA218A110A160A12F6270A1606
:102010000A12EF270A160A12D8270A168A150A1278
:102020004E208A110A1601300317B5000A12DB2070
:102030000A160C300317B5000A12DB200A1601300D
:1020400003179800013099004B309A008A150A1244
:1020500000208A110A1602300317980001309900F7
:1020600052309A008A150A1200208A110A16E301DA
:10207000E401E501E60107300317980003309900F9
:1020800001309A009B010A120C270A1670080319E6
:102090004C280313EF14652C073003179800033006
:1020A000990001309A0001309B000A120C270A1691
:1020B00070080319652C0313EF1C652C01300317FE
:1020C000B5000A12DB200A16EF100313F401F50124
:1020D000F601F7016308F0006408F1006508F200FA
:1020E0006608F3000A12F0210A160130031C0030C2
:1020F000F00070080319C3286308F4006408F500B1
:102100006508F6006608F7000030F0000030F100C6
:102110004830F2008530F3000A12F0210A1601302F
:10212000031C0030F00070080319C32887016430D5
:10213000031798000030990062309A0001309B002C
:102140000A124E270A160A1225240A1670080317C7
:1021500098007108990072089A0073089B00053076
:102160009C0000309D000A12C6270A1670089A00CB
:1021700001309800033099008A150A1200208A1154
:102180000A166F11FF296308F4006408F50065085A
:10219000F6006608F7000030F0000030F10048302B
:1021A000F2008530F3000A12F0210A1601300318FC
:1021B0000030F0007008031925296308F400640852
:1021C000F5006508F6006608F7000030F000003002
:1021D000F1006130F2008830F3000A12F0210A1693
:1021E0000130031C0030F00070080319252901306C
:1021F0008700E830031798000330990068309A0090
:1022000001309B000A124E270A160A1225240A16CC
:102210007008031798007108990072089A007308F3
:102220009B0007309C0000309D000A12C6270A164A
:1022300070089A0001309800033099008A150A123C
:1022400000208A110A166F11FF296308F400640840
:10225000F5006508F6006608F7000030F000003071
:10226000F1006130F2008830F3000A12F0210A1602
:10227000013003180030F000700803198729630843
:10228000F4006408F5006508F6006608F700003001
:10229000F0004030F1001C30F2008D30F3000A12E3
:1022A000F0210A160130031C0030F00070080319F9
:1022B00087290230870010300317980027309900D3
:1022C00068309A0001309B000A124E270A160A1243
:1022D00025240A16700803179800710899007208DF
:1022E0009A0073089B0007309C0000309D000A1282
:1022F000C6270A1670089A0001309800033099002A
:102300008A150A1200208A110A166F11FF29630824
:10231000F4006408F5006508F6006608F700003070
:10232000F0004030F1001C30F2008D30F3000A1252
:10233000F0210A16013003180030F000700803196C
:10234000FF296308F4006408F5006508F6006608D4
:10235000F7000030F000C830F1002F30F2008F306D
:10236000F3000A12F0210A160130031C0030F000BD
:1023700070080319FF2903308700643003179800A1
:102380000030990001309A0000309B000A124E275D
:102390000A160A1225240A167008031798007108F5
:1023A000990072089A0073089B0005309C00003069
:1023B0009D000A12C6270A1670089A00013098007C
:1023C000033099008A150A1200208A110A16A030DB
:1023D000031798008630990001309A0000309B0066
:1023E0000A124E270A160A1225240A167008E3005C
:1023F0007108E4007208E5007308E6006F156308D1
:10240000F4006408F5006508F6006608F70000307F
:10241000F000C830F1002F30F2008F30F3000A12C4
:10242000F0210A16013003180030F000700803197B
:10243000772A6308F4006408F5006508F60066086A
:10244000F7000030F0007C30F1001230F2009130E3
:10245000F3000A12F0210A160130031C0030F000CC
:1024600070080319772A04308700E83003179800B2
:102470000330990001309A0000309B000A124E2769
:102480000A160A1225240A16700803179800710804
:10249000990072089A0073089B0005309C00003078
:1024A0009D000A12C6270A1670089A00013098008B
:1024B000033099008A150A1200208A110A1640304A
:1024C000031798004230990068309A0001309B0051
:1024D0000A124E270A160A1225240A167008E3006B
:1024E0007108E4007208E5007308E6006F156308E0
:1024F000F4006408F5006508F6006608F70000308F
:10250000F0007C30F1001230F2009130F3000A123A
:10251000F0210A16013003180030F000700803198A
:10252000EF2A6308F4006408F5006508F600660801
:10253000F7000030F0002430F1007430F2009130E8
:10254000F3000A12F0210A160130031C0030F000DB
:1025500070080319EF2A04308700E8300317980049
:102560000330990008309A0000309B000A124E2771
:102570000A160A1225240A16700803179800710813
:10258000990072089A0073089B0005309C00003087
:102590009D000A12C6270A1670089A00013098009A
:1025A000033099008A150A1200208A110A16403059
:1025B000031798004230990068309A0001309B0060
:1025C0000A124E270A160A1225240A167008E3007A
:1025D0007108E4007208E5007308E6006F156308EF
:1025E000F4006408F5006508F6006608F70000309E
:1025F000F0002430F1007430F2009130F3000A1240
:10260000F0210A16013003180030F0007008031999
:10261000672B6308F4006408F5006508F600660897
:10262000F7000030F0005030F1004330F2009230FB
:10263000F3000A12F0210A160130031C0030F000EA
:1026400070080319672B04308700E83003179800DF
:10265000033099000A309A0000309B000A124E277E
:102660000A160A1225240A16700803179800710822
:10267000990072089A0073089B0005309C00003096
:102680009D000A12C6270A1670089A0001309800A9
:10269000033099008A150A1200208A110A16403068
:1026A000031798004230990068309A0001309B006F
:1026B0000A124E270A160A1225240A167008E30089
:1026C0007108E4007208E5007308E6006F156308FE
:1026D000F4006408F5006508F6006608F7000030AD
:1026E000F0005030F1004330F2009230F3000A1253
:1026F000F0210A16013003180030F00070080319A9
:10270000DF2B6308F4006408F5006508F60066082E
:10271000F7000030F0007C30F1001230F20093300E
:10272000F3000A12F0210A160130031C0030F000F9
:1027300070080319DF2B04308700E8300317980076
:102740000330990012309A0000309B000A124E2785
:102750000A160A1225240A16700803179800710831
:10276000990072089A0073089B0007309C000030A3
:102770009D000A12C6270A1670089A0001309800B8
:10278000033099008A150A1200208A110A16403077
:10279000031798004230990068309A0001309B007E
:1027A0000A124E270A160A1225240A167008E30098
:1027B0007108E4007208E5007308E6006F1563080D
:1027C000F4006408F5006508F6006608F7000030BC
:1027D000F0007C30F1001230F2009330F3000A1266
:1027E000F0210A16013003180030F00070080319B8
:1027F000062C01300317980003309900A0309A008E
:102800008A150A1200208A110A166F150130031763
:1028100098000130990067309A008A150A1200204A
:102820008A110A166F19212C0130031798000B30FA
:1028300099006A309A008A150A1200208A110A1635
:102840002D2C0130031798000B30990024309A008A
:102850008A150A1200208A110A16023003179800FE
:102860000B3099002C309A008A150A1200208A1128
:102870000A160730031798000530990001309A00B6
:102880009B010A120C270A16700803194A2C03131D
:102890006F14642C0730031798000530990001303D
:1028A0009A0001309B000A120C270A1670080319BF
:1028B000642C03136F1C642C6F1001300317B500D8
:1028C0000A12DB200A161F28652807300317980014
:1028D0000430990001309A009B010A120C270A1655
:1028E00070080319762C03136F14272E0730031773
:1028F00098000430990001309A0001309B000A12C0
:102900000C270A1670080319272E03136F1C272E95
:102910006F1001300317B5000A12DB200A160130D0
:10292000031798000130990021309A008A150A1285
:1029300000208A110A160230031798000B30990004
:1029400033309A008A150A1200208A110A160313DE
:1029500001308700003003179800003099002230C2
:102960009A0088309B008A150A12D7208A110A160D
:102970004708003C031DBE2C46080A3C031CA02D42
:102980000230870000300317980000309900223091
:102990009A0088309B008A150A12D7208A110A16DD
:1029A0004708003C031DD62C4608053C031C442D5B
:1029B000053087000030031798000030990022305E
:1029C0009A0088309B008A150A12D7208A110A16AD
:1029D0000030031798000030990022309A008830A8
:1029E0009B008A150A12D7208A110A160A1225247A
:1029F0000A167530F4009330F5006430F60082302A
:102A0000F7000A1240220A1670080317980071088E
:102A1000990072089A0073089B0005309C000030F2
:102A20009D000A12C6270A1670089A000130980005
:102A3000033099008A150A1200208A110A16013003
:102A4000031798000130990048309A008A150A123D
:102A500000208A110A1601300317980008309900E7
:102A60003A309A008A150A1200208A110A1602309A
:102A7000031798000B3099003F309A008A150A120C
:102A800000208A110A169F2D00300317980000308D
:102A9000990022309A0088309B008A150A12D720AC
:102AA0008A110A160A1225240A16CD30F400CC30F9
:102AB000F5006430F6008230F7000A1240220A1650
:102AC0007008031798007108990072089A0073083B
:102AD0009B0005309C0000309D000A12C6270A1694
:102AE00070089A0001309800033099008A150A1284
:102AF00000208A110A16013003179800013099004E
:102B0000A7309A008A150A1200208A110A1601308D
:102B10000317980008309900C6309A008A150A12E7
:102B200000208A110A160230031798000B30990012
:102B3000CB309A008A150A1200208A110A16FB2D42
:102B40000030031798000030990022309A00883036
:102B50009B008A150A12D7208A110A160A12252408
:102B60000A16A630F4009B30F5000430F6007C30E5
:102B7000F7000A1240220A1670080317980071081D
:102B8000990072089A0073089B0005309C00003081
:102B90009D000A12C6270A1670089A000130980094
:102BA000033099008A150A1200208A110A16013092
:102BB0000317980001309900BE309A008A150A1256
:102BC00000208A110A160130031798000830990076
:102BD000C1309A008A150A1200208A110A160230A2
:102BE000031798000B309900D2309A008A150A1208
:102BF00000208A110A160730031798000530990043
:102C000001309A009B010A120C270A16700803195A
:102C10000C2E03136F16262E07300317980005306D
:102C2000990001309A0001309B000A120C270A1605
:102C300070080319262E03136F1E262E6F12013003
:102C40000317B5000A12DB200A161F28A72C07302D
:102C5000031798000530990001309A009B010A1271
:102C60000C270A1670080319382E03136F16F12E5D
:102C70000730031798000530990001309A000130A1
:102C80009B000A120C270A1670080319F12E031371
:102C90006F1EF12E6F1201300317B5000A12DB20F0
:102CA0000A1601300317980001309900E4309A00A9
:102CB0008A150A1200208A110A160230031798009A
:102CC0000B309900D9309A008A150A1200208A1117
:102CD0000A1602300317A4000A12E2260A160A1284
:102CE000FB220A162330F4006A30F5002630F60085
:102CF0008530F7000A1250210A164A30F4000C30D1
:102D0000F5003030F6008230F7000A1211230A165F
:102D100070088316E0007108E1007208E200730891
:102D2000E300700883120317980071089900720875
:102D30009A0073089B0005309C0000309D000A1229
:102D4000C6270A1670089A000130980007309900CB
:102D50008A150A1200208A110A16013003179800FA
:102D600001309900AA309A008A150A1200208A11AF
:102D70000A160130031798000C309900B1309A0000
:102D80008A150A1200208A110A16073003179800C4
:102D90000530990001309A009B010A120C270A168F
:102DA00070080319D62E0313EF14F02E0730031703
:102DB00098000530990001309A0001309B000A12FA
:102DC0000C270A1670080319F02E0313EF1CF02EBF
:102DD000EF1001300317B5000A12DB200A161F2876
:062DE000692E1F28F22EEF
:06126C0043343D34003460
:101272004B344F3448344D3420342034203400343D
:0E12820033342D346234613463346B34003401
:0E12900033342D346234613463346B340034F3
:0A129E00203420347034463400344C
:0E12A80033342D346234613463346B340034DB
:0412B60000340034CC
:0612BA0043343D34003412
:0E12C000633468346F34733465342034003482
:1012CE0031342D345234203432342D3443342034DE
:0A12DE0033342D34643462340034DC
:0812E80000340034003400342E
:0812F000003400340034003426
:0612F80052343D340034C5
:0812FE004F3448344D34003434
:0E13060073346F3475346E3464343D34003407
:0613140064346234003471
:08131A0049344E34463400341E
:081322004E3461344E340034F6
:04132A003034003427
:06132E0043343D3400349D
:0A13340020342034753446340034B0
:0A133E00203420346E3446340034AD
:0E13480033342D346234613463346B3400343A
:0E13560033342D346234613463346B3400342C
:0E13640033342D346234613463346B3400341E
:081372000034003400340034A3
:08137A00643462343D34003498
:08138200003400340034003493
:0E138A0049346E34663420342034203400346C
:0613980043343D34003433
:10139E0064340034E83403341034273464340034B5
:0413AE00E8340334E8
:0213B2000F34F6
:02400E004A2F37
:00000001FF
